:020000040800F2
:10000000A0290020614400080D2E01083544000895
:10001000354400083544000835440008000000005D
:100020000000000000000000000000001D3D00086E
:100030003544000800000000C93C000881DB0008CE
:10004000D53D0008D53D0008D53D0008D53D000848
:10005000D53D0008D53D0008D53D0008D53D000838
:10006000D53D0008D53D0008D53D0008D53D000828
:10007000D53D0008D53D0008D53D0008D53D000818
:10008000D53D0008D53D0008D53D0008D53D000808
:10009000D53D0008D53D0008D53D0008D53D0008F8
:1000A000D53D0008D53D0008D53D0008D53D0008E8
:1000B000D53D0008D53D0008D53D0008D53D0008D8
:1000C000D53D0008D53D0008D53D0008D53D0008C8
:1000D000D53D0008D53D0008D53D0008D53D0008B8
:1000E000D53D0008D53D0008D53D0008D53D0008A8
:1000F000D53D0008D53D0008D53D0008D53D000898
:10010000D53D0008D53D0008D53D0008D53D000887
:10011000D53D0008D53D0008D53D0008D53D000877
:10012000D53D0008D53D0008D53D0008D53D000867
:0C013000D53D0008D53D0008D53D000875
:04013C00FFFFFFFFC3
:100140004FF0FF0C1CEAD0521EBF1CEAD15392EABA
:100150000C0F93EA0C0F6FD01A4480EA010C400296
:1001600018BF5FEA41211ED04FF0006343EA5010F0
:1001700043EA5111A0FB01310CF00040B1F5000F32
:100180003EBF490041EAD3715B0040EA010062F1E1
:100190007F02FD2A1DD8B3F1004F40EBC25008BFCB
:1001A00020F00100704790F0000F0CF0004C08BFE9
:1001B00049024CEA502040EA51207F3AC2BFD2F1B6
:1001C000FF0340EAC250704740F400004FF00003C4
:1001D000013A5DDC12F1190FDCBF00F000407047FE
:1001E000C2F10002410021FA02F1C2F1200200FA3C
:1001F00002FC5FEA310040F1000053EA4C0308BF03
:1002000020EADC70704792F0000F00F0004C02BF53
:10021000400010F4000F013AF9D040EA0C0093F0CE
:10022000000F01F0004C02BF490011F4000F013B28
:10023000F9D041EA0C018FE70CEAD15392EA0C0F96
:1002400018BF93EA0C0F0AD030F0004C18BF31F001
:10025000004CD8D180EA010000F00040704790F0D7
:10026000000F17BF90F0004F084691F0000F91F07B
:10027000004F14D092EA0C0F01D142020FD193EA41
:100280000C0F03D14B0218BF084608D180EA0100C9
:1002900000F0004040F0FE4040F40000704740F0A5
:1002A000FE4040F44000704780F0004002E000BF94
:1002B00081F0004142001FBF5FEA410392EA030F51
:1002C0007FEA226C7FEA236C6AD04FEA1262D2EB9B
:1002D0001363C1BFD218414048404140B8BF5B42A0
:1002E000192B88BF704710F0004F40F4000020F039
:1002F0007F4018BF404211F0004F41F4000121F04F
:100300007F4118BF494292EA030F3FD0A2F1010298
:1003100041FA03FC10EB0C00C3F1200301FA03F1D6
:1003200000F0004302D5494260EB4000B0F5000FF9
:1003300013D3B0F1807F06D340084FEA310102F1B8
:100340000102FE2A51D2B1F1004F40EBC25008BF6A
:1003500020F0010040EA03007047490040EB000034
:10036000013A28BFB0F5000FEDD2B0FA80FCACF135
:10037000080CB2EB0C0200FA0CF0AABF00EBC25062
:1003800052421843BCBFD0401843704792F0000F50
:1003900081F4000106BF80F400000132013BB5E7A3
:1003A0004FEA41037FEA226C18BF7FEA236C21D019
:1003B00092EA030F04D092F0000F08BF084670477E
:1003C00090EA010F1CBF0020704712F07F4F04D14C
:1003D000400028BF40F00040704712F100723CBF5F
:1003E00000F50000704700F0004343F0FE4040F489
:1003F000000070477FEA226216BF08467FEA236347
:100400000146420206BF5FEA412390EA010F40F431
:10041000800070474FF0000304E000BF10F000437D
:1004200048BF40425FEA000C08BF704743F0964364
:1004300001464FF000001CE050EA010208BF70477F
:100440004FF000030AE000BF50EA010208BF704706
:1004500011F0004302D5404261EB41015FEA010C1B
:1004600002BF84460146002043F0B64308BFA3F113
:100470008053A3F50003BCFA8CF2083AA3EBC253F5
:1004800010DB01FA02FC634400FA02FCC2F1200214
:10049000BCF1004F20FA02F243EB020008BF20F04B
:1004A0000100704702F1200201FA02FCC2F12002B1
:1004B00050EA4C0021FA02F243EB020008BF20EAA6
:1004C000DC7070474FEA4002B2F1FE4F0FD34FF09D
:1004D0009E03B3EB12620DD94FEA002343F00043B1
:1004E00010F0004F23FA02F018BF404270474FF05F
:1004F0000000704712F1610F01D1420205D110F0E6
:10050000004008BF6FF0004070474FF00000704798
:1005100053B94AB9002908BF00281CBF4FF0FF316A
:100520004FF0FF3000F06CB9ADF1080C6DE904CE6E
:1005300000F006F8DDF804E0DDE9022304B07047BE
:100540002DE9F047089E0D4604468E46002B40F0EC
:1005500082808A42174646D9B2FA82F24AB1C2F183
:10056000200105FA02F320FA01F1974041EA030E57
:1005700094404FEA1748230CBEFBF8FCB9B208FBC5
:100580001CEE43EA0E430CFB01F098420AD9FB181B
:100590000CF1FF3580F01681984240F21381ACF1E6
:1005A000020C3B441B1AA4B2B3FBF8F008FB103357
:1005B00044EA034400FB01F1A14209D93C1900F1CE
:1005C000FF3380F00181A14240F2FE8002383C44BA
:1005D000641A40EA0C4000211EB1D4400023C6E951
:1005E0000043BDE8F08702B9FFDEB2FA82F2002ACA
:1005F0004FD1CB1B4FEA174E1FFA87F80121B3FBEF
:10060000FEFC250C0EFB1C3345EA034508FB0CF3EE
:10061000AB4207D97D190CF1FF3002D2AB4200F298
:10062000E7808446ED1AA3B2B5FBFEF00EFB105531
:1006300043EA054408FB00F8A04507D93C1900F13E
:10064000FF3302D2A04500F2D7801846A4EB08047D
:1006500040EA0C40C0E78B4208D9002E00F0AF8082
:100660000021C6E900050846BDE8F087B3FA83F12A
:1006700000294BD1AB4202D3824200F2B780841AE8
:1006800065EB030301209E46002EAAD0C6E9004E6A
:10069000A7E7C2F1200C01FA02F3974020FA0CF010
:1006A0004FEA174E21FA0CFC1843BCFBFEF1050C77
:1006B0000EFB11CC1FFA87F845EA0C4501FB08F345
:1006C000AB4204FA02F409D97D1901F1FF3C80F034
:1006D0008B80AB4240F2888002393D44EB1A85B2F0
:1006E000B3FBFEF00EFB103345EA034500FB08F3B5
:1006F000AB4207D97D1900F1FF3C71D2AB426FD9F3
:1007000002383D44EB1A40EA014178E7C1F1200C80
:100710008B4022FA0CF71F4320FA0CF405FA01F380
:100720004FEA174E25FA0CF51C43230CB5FBFEF9D6
:100730001FFA87F80EFB195543EA054509FB08FA2D
:10074000AA4502FA01F200FA01F308D97D1909F16C
:10075000FF3047D2AA4545D9A9F102093D44A5EB8E
:100760000A05A4B2B5FBFEF00EFB105544EA0544A1
:1007700000FB08F8A04507D93C1900F1FF352DD240
:10078000A0452BD902383C4440EA0940A4EB0804B8
:10079000A0FB02894C45C6464D4619D316D05EB122
:1007A000B3EB0E0264EB050404FA0CFCCA404CEAFD
:1007B0000202CC40C6E900240021BDE8F0873146A2
:1007C00030460EE7AC46EDE6184601E74345E6D273
:1007D000B8EB020E69EB07050138E0E72846D3E7DE
:1007E00060468FE78146BAE7614677E708464BE700
:1007F000ACF1020C3D4415E702383C4426E700BF4B
:10080000704700BF0000000070B5454DD5F8743149
:10081000996811F0010188B021D102AA40F6034085
:1008200004F046FD0446002877D1029B9B681B78A4
:1008300093B9BFF35B8F2B4653F8C82FBFF35B8F81
:1008400002F00902BFF35B8F53E8001F43E800206A
:100850000028F9D1BFF35B8F02980BF05FFB02AA6F
:10086000002141F2030004F023FD0446002854D186
:10087000029B2C4899680822013112F007FB02986C
:100880000BF04CFB214602AA41F2010004F010FDDE
:100890000446002841D1029883685A7885F8682078
:1008A000D9789A7842EA0122A5F86A201A7985F85F
:1008B0006920197ADA7942EA0122A5F86C205A797E
:1008C0009B7942EA0323A5F86E300BF027FB214603
:1008D00002AA41F2020004F0EBFC0446E8B9029BD4
:1008E000114899684022013112F0D0FA02980BF0B9
:1008F00015FB06F0DFF8044678B995F874305A060F
:1009000018D40A4B06930A48022305AA4FF48251D1
:100910006FF01204059312F09FFB204608B070BDE3
:100920000000002070000020780000206380010893
:10093000545B0108014602AA42F2030004F0B8FC2D
:1009400004460028E9D1029B9948996808220131A0
:1009500012F09CFA02980BF0E1FA214602AA42F248
:10096000020004F0A5FC04460028D6D1029B9B6837
:10097000B3F80120A5F8FC2091B221B1DA788D48B6
:10098000114614F02AFD02980BF0C8FA95F874602D
:1009900016F0200600F0D98095F894301B0711D589
:1009A00002AA002142F21C0004F082FC0446002846
:1009B000B3D10298836853F8012F5B68C5E93623E9
:1009C0000BF0ACFA95F8D0309E0623D50DF1060158
:1009D00001A804F0E9FC044600289ED1042142F25B
:1009E000240004F01DFC0646002800F0B580042118
:1009F00008300BF0C3FBBDF804300380BDF80630AF
:100A000043802246314642F2240004F051FC044661
:100A1000002882D195F8D0305C0610D502AA0021BA
:100A200042F22A0004F044FC044600287FF475AF2B
:100A3000029883685B7885F818310BF06FFA08210B
:100A400042F2010004F0ECFB0446002800F0848030
:100A5000082108440BF092FB95F8D01011F0400FDC
:100A6000024640F2022308BF032388074CBF43F02D
:100A70002C0043F00C0095F8D1308E0648BF40F0B2
:100A8000400013F0090F95F89A3018BF40F4006049
:100A900003F00603C90748BF40F01000062B08BF4B
:100AA00040F4C070002112F0DAFA2146002242F22E
:100AB000010004F0FDFB044600287FF42EAF95F8FA
:100AC0007430B5F8FC109A065BD4D9B902AA41F289
:100AD000050004F0EDFB044600287FF41EAFB5F8D6
:100AE000FC3063B9029B9B685A78997842EA0122EC
:100AF000A5F8FC209A882F48114614F06EFC029845
:100B00000BF00CFA082140F6014004F089FB044682
:100B100010B3082108440BF031FB95F8D030DB0707
:100B200002463DD520A1D1E9000112F098FA2146F4
:100B3000002240F6014004F0BBFB044600287FF48D
:100B4000ECAE05F001FC0446E7E6022140F66D40FC
:100B500004F066FB044610B96FF06804DDE602217C
:100B600008300BF00BFB0123037046702146324620
:100B700040F66D4004F09CFB044600283FF40CAFA7
:100B8000CBE60029BED10C4B06930C48022305AAE4
:100B90004FF4825105936FF0040412F05DFABCE645
:100BA00007484FF00051C0E7908800020080002005
:100BB000D00000200001002087800108545B01085C
:100BC000108800024B1E59425941014B1970704761
:100BD00089180020014811F0C3B900BF66670108F9
:100BE00011B1034811F0BCB9024811F0B9B900BF06
:100BF00084670108A467010812F0FC6F2DE9F14F2A
:100C0000D0E901B9076905460E4614460ED04F4992
:100C10004F4A504840F2B52311F046FB4E4811F0C0
:100C200043FB4B4840F2B52111F037FB04F0300391
:100C3000302B0ED14949464A46484FF42E7311F0E5
:100C400033FB474811F030FB41484FF42E7111F04F
:100C500024FB04F00213022B0ED142493C4A3D48CA
:100C60004FF42F7311F020FB3F4811F01DFB384863
:100C70004FF42F7111F011FB04F00603042B0BD17C
:100C80003A493448324A4FF4307311F00DFB304882
:100C90004FF4307111F001FB14F4402822D0A3036B
:100CA0000ED433492A4A2B4840F2C32311F0FCFAF0
:100CB000304811F0F9FA264840F2C32111F0EDFA5C
:100CC000B8F5402F0ED12C49214A224840F2C723C3
:100CD00011F0EAFA294811F0E7FA1D4840F2C7215D
:100CE00011F0DBFAE00206D5B8F1000F03D0E107FE
:100CF00048BF84F44024012303FA06FADBF80030ED
:100D00001AEA030F24F480180ED11D49104A114825
:100D10004FF4357311F0C8FA1A4811F0C5FA0C48AF
:100D20004FF4357111F0B9FA3B68E2074CBF4AEA5B
:100D3000030323EA0A033B60D9F8003042463146F8
:100D4000284601B0BDE8F04F184700BFD967010839
:100D5000AF67010836680108536801087768010821
:100D6000B0680108ED68010822690108746901088A
:100D7000A7690108ED690108286A0108696A010884
:100D8000956A0108D36A010870B503788AB00446F1
:100D90000E4607AD032B20D8DFE803F002191B1D18
:100DA0001149284612F03CF863780493A378039322
:100DB000E378029323790193637900930B4AA37933
:100DC00005951E21304611F0D8F80AB070BD0849CB
:100DD000E7E70849E5E70849E3E7084A0A21284622
:100DE00011F0CBF8E0E700BFE56A0108076B0108E6
:100DF000EC6A0108F36A0108FD6A01089E92010885
:100E000010B588B00C4612F0D0FC6946FFF7BCFF65
:100E100003482246694611F0A3F808B010BD00BF90
:100E20002A6B010800B589B012F0BFFC6946FFF7D4
:100E3000ABFF0348694611F093F809B05DF804FB75
:100E4000406B010843681B6870B50D46D9060669FA
:100E500004460ED41849194A194840F2924311F039
:100E600023FA184811F020FA144840F2924111F088
:100E700014FA3368DA0663681B6848BF85F0010519
:100E8000DB060ED40C490D4A0D484FF48D6311F06A
:100E90000BFA0C4811F008FA08484FF48D6111F074
:100EA000FCF935B1A368DB6820461021BDE870402D
:100EB0001847A3681B69F7E7956A0108AF6701083F
:100EC00036680108D36A010810B58CB00DF107032C
:100ED0000DF10F0204930123CDE9062304AACDE905
:100EE000082306AACDE90A230593094B8DF80700CC
:100EF0001868836807491C6808AA0AABA047002144
:100F00000A200FF0B9FD9DF80F000CB010BD00BF16
:100F10001C150020201500202DE9F3411A4F05462D
:100F2000AC000E463868002164B2FFF78BFF44F036
:100F3000420000F0FE00FFF7C7FF3046FFF7C4FF96
:100F400038680121FFF77EFF44F043040021386830
:100F5000FFF778FFE0B2FFF7B7FF80460020FFF70A
:100F6000B3FF012104463868FFF76CFF07490848C2
:100F700051F82510CDF800802346324610F0F0FFDE
:100F800002B0BDE8F08100BF18150020145D010813
:100F9000576B01082DE9F04F84008DB063B20193C7
:100FA00043F042038DF808300B0C8DF809300B0A22
:100FB0008DF80A3002AB049303AA04232B4F059348
:100FC000CDE90623002604ABDFF8ACA008934FF070
:100FD000010806AB83460D4638688DF80B60314634
:100FE000CDE90A38CDF82480FFF72CFFDAF80000AD
:100FF0008368DFF888901B6808AA1C4649460AAB3C
:10100000A04738684146FFF71DFF00210A200FF076
:1010100033FD019B38688DF8096043F04304314685
:101020008DF80840ADF80A60FFF70CFFDAF8000011
:10103000836808AA1C6849460AABA047414638683D
:10104000FFF700FF9DF80E309DF80D200849094874
:1010500051F82B101B0243EA02439DF80F20134363
:101060002A4610F07DFF0DB0BDE8F08F1815002066
:10107000145D0108756B01081C1500202015002067
:101080002DE9F04F002095B004F0BAFD064630B1CE
:101090000146B64810F064FF15B0BDE8F08FB44DBE
:1010A000B44810F05DFF0FCD0EAC0FC42B68236069
:1010B000B1490096334603220EA805F0E7FB01462E
:1010C000002800F04F81AD4810F04AFFAC48AD4C0D
:1010D00006F016FEAC4810F043FFAC4B2360AC4862
:1010E000AC4D0CF0FDFF23682860039463B9AA4956
:1010F000AA4AAB48BA2311F0D7F8AA4811F0D4F89D
:10110000A648BA2111F0C9F82B6863B9A649A34AC9
:10111000A348BB2311F0C8F8A24811F0C5F89F48B6
:10112000BB2111F0BAF8A14B4FF480729A80A04A0B
:101130001A6097480CF0D4FF4FF4D01205219D4857
:10114000FFF75AFD4FF4D01200219A48FFF754FDE3
:101150004FF4D01201219748FFF74EFD28684FF455
:10116000D0120421FFF748FD044668B18B4A92492A
:101170008B48D02311F098F89048214611F094F84C
:101180008648D02111F089F823210120FFF7C4FE01
:1011900000210220FFF7C0FE8B210320FFF7BCFED9
:1011A000C3210420FFF7B8FE09210620FFF7B4FE93
:1011B00000210720FFF7EEFE00210920FFF7EAFEDD
:1011C0004FF400010A20FFF7E5FE7D49DFF8DC81DE
:1011D0000B20FFF7DFFE4FF050594FF08A4A0021F5
:1011E00042F210700FF048FC04AB089306AA0523E6
:1011F000CDE90A23099308AB0C9301240AABCDE98E
:101200000E3400214323286804930D948DF81410A4
:10121000FFF718FE039B186883680CAE32461F6800
:1012200041460EABB84721462868FFF70BFEDDF8B4
:1012300019206449644812BA002AB8BFFF32141258
:10124000224610F08DFE2046FFF7E8F84946FEF7EB
:1012500077FF5146FEF774FFFFF734F901465B480C
:1012600010F07EFE5A4B1B78002B71D0594F3A7804
:101270000524B2FBF4F404EB8404141B14F0FF0403
:101280001FD1DFF864B102F59662BBF90010BBF91B
:1012900008309BF80600ADF8302010F06EFDABF87A
:1012A000002070B1214618220EA811F0FAFD4A4B19
:1012B0000EA9CDE90F3620460223ADF8443008F0E0
:1012C0007FFC3A780C23B2FBF3F403FB142414F0F4
:1012D000FF041FD1DFF814B102F5E162BBF9001081
:1012E000BBF908309BF80600ADF8302010F045FD42
:1012F000ABF8002070B1214618220EA811F0D1FDE4
:10130000364B0EA9CDE90F3620460223ADF8443006
:1013100008F056FC3B783C21B3FBF1F201FB1232A2
:1013200012F0FF0F0AD10D21B3FBF1F201FB1232D3
:1013300041F6590151FA82F229490A80C3EBC313DD
:10134000DBB2022B9CBF00233B703B7801333B7028
:1013500001F0F2FE013810F0FF0008BF642001F038
:10136000F1FE3CE71F4810F0FBFDAFE68B6B010878
:10137000445C0108AB6B0108545D0108C26B0108B5
:10138000D80100201C1500200A6C0108945801089F
:10139000146C010818150020366C01081A6C01083D
:1013A000366801083F6C01085B6C010820150020BD
:1013B00040420F0034580108F4700108656C0108C0
:1013C000000F90008A6C0108A36C0108B26C010840
:1013D0008918002088180020945D0108205E01080B
:1013E00028020020E86B0108F00100200C02002018
:1013F0002DE9F04F8BB00F46DDF850B00393144643
:101400000646002840F05981AE49AF48AF4A40F245
:10141000D62310F049FFAD4840F2D62110F03DFF31
:10142000B7B1B57804958DBBAA46F378009313B194
:101430001BF0020F2DD1BAF1000F2AD124B13A4688
:101440003146204611F022FD38460BB0BDE8F08F42
:101450009F499D489D4AC22310F026FF9B48C22108
:1014600010F01BFF3078B57896F8019005EB8005F9
:1014700035444FF0000AD145D3D90135284611F043
:10148000D9FC013005440AF1010AF4E70BF0010A26
:10149000CBE796F800904FEA8903029306EB89099F
:1014A000002C5BD1BAF1000F32D04D444D451DD117
:1014B000A946009BDFF820C286494B440BF0050883
:1014C0004D469A460BF00202AA45BDD015F8010B15
:1014D00056F82000604524D3884222D21BF0010F29
:1014E00039D1B8F1000FEFD1013FEDE719F8013B19
:1014F00056F8230011F09EFC159B013033B1169B6A
:101500009C423EBF159B23F8140001340744CDE7ED
:101510002DB11BF00404CCD0A9445446C9E72C4695
:10152000C7E7002AD0D04FF00009009211F082FCEA
:10153000159BDFF8A4C1009A6649013033B1169BB0
:101540009C423EBF159B23F8140001340744B9F1B7
:10155000000FB9D0C5E74FF00109E6E7029A31461E
:10156000204611F093FC029BE3180193BAF1000F9F
:101570000AD049462A4606A811F088FC0023A37029
:10158000A944DDF804800DE0BDB11BF0040F14D0B8
:101590002A464946019811F079FC019BA94403EBC6
:1015A000050855460BF001020BF0020EDFF828A1EA
:1015B000059200230BF0040B24E00025A570E0E762
:1015C00019F8031056F82120524502D341488242AF
:1015D00005D3BEF1000F04D108F8011B11E0059AF4
:1015E0003AB10DF1280C6A1C654405F8101CD5B2FF
:1015F00007E0BBF1000F04D008F8011BA27801320C
:10160000A2700133009A9A42DAD863782B4463704F
:10161000019BA8EB030BA378ABEB030B049B84F8B3
:1016200003B01344FF1A029BFF1A009B40463A4640
:1016300009EB0301B84411F029FCA8EB0400002DCC
:101640003FF403AF039B1C1AA54202D36FF01B00AB
:10165000FBE64FF0000906AB159A13F8093056F86F
:101660002310C2B132F81970C24604F1FF3B0AF8E8
:10167000013B97B13A46504611F008FC09F10109C7
:101680004D45ABEB07040AEB0708E4DC039B1F4462
:10169000A7EB0B00D9E6159FE6E7013901239C4231
:1016A000D4D011F8012F08F8032008785A1C10B97B
:1016B0001F1EE3DACAE71346F1E700297FF4B1AE53
:1016C000D0E600BFEC6E010836680108576E0108CD
:1016D000EF6E010818A20108FC5601080B680133DF
:1016E0000B60014B1B6818473C020020014B18603F
:1016F000704700BF3C02002007B50B4600210246A0
:101700000191034801A900F07DF903B05DF804FBE5
:10171000DD16000830B585B0CDE90101044600258D
:1017200001A90548039500F06DF9DDE90230984202
:10173000B8BF255405B030BD3B1F0108F8B50D46B4
:10174000002939D006680C1FA41BE70824F0070401
:101750003444A378DB070DD4184A19491948A42347
:1017600010F0A2FD1848294610F09EFD1348A42150
:1017700010F093FD3946304610F016FC384436F828
:101780003030C01A87420DD00C4A10490D48AC23A6
:1017900010F08AFD0E48294610F086FD0748AC215E
:1017A00010F07BFD638823F00103638039463046E7
:1017B000BDE8F84010F0B5BCF8BD00BF076F0108E8
:1017C000286F010836680108396F0108716F010838
:1017D000976F01084B422DE9F04703EA010731EA10
:1017E0000303066814461FD0042F3D46B94628BFA0
:1017F0000425CF1B07F1FF3A1AEA070F0ED0334931
:10180000334A34484FF49C7310F04EFD324810F0C8
:101810004BFD2F484FF49C7110F03FFD7CB94FF009
:1018200000094846BDE8F087042904D8BDE8F04720
:10183000114610F0A7BC4FF000090425DAE7B368A1
:10184000B3EBD40FEBD904F10B013944491BC908A0
:10185000304610F0FFFB80460028E0D009F1040577
:1018600005EBC005354455447F422F40A7EB0909DD
:101870004C44A9F1040307349B1B24F00704A41B68
:10188000B0EBD30F4FEAD3074FEAE40408D2014686
:101890003A46304610F02BFC4146304610F089FBAA
:1018A0003946304610F080FB3844844207D2304637
:1018B000224610F01CFC2146304610F07AFB06EB65
:1018C000C706738843F001037380AAE7D36F01084A
:1018D000076F010836680108EE6F0108B2F5802F26
:1018E0002DE9F04106460D46174669D33D493E4A6B
:1018F0003E4840F2DB1310F0D7FC3D4810F0D4FC1A
:1019000040F2DB11384810F0C8FC043FEC1D3D44A8
:1019100024F0070425F007052D1B172D4FEAD507E6
:101920000ED83449304A314840F2EB1310F0BCFC79
:10193000314810F0B9FC2C4840F2EB1110F0ADFC2E
:10194000B7FA87F8C8F124084FEA8808346008F12C
:1019500007060023F608E360731CBB42A7600ED99C
:101960002649214A214840F2FB1310F09DFC2248F1
:1019700010F09AFC1C4840F2FB1110F08EFC04F1B0
:101980001002A0440023904529D1720042F00102C8
:10199000628004EBC601BA1B5000238048806119A5
:1019A00024F8366004EBC7074B8062537B8843F012
:1019B00001037B8031462046BDE8F04110F0F9BAC2
:1019C000042AA2D80E49084A08484FF4F17310F0CF
:1019D0006BFC094810F068FC4FF4F17192E742F893
:1019E000043BD0E70B700108076F01083668010857
:1019F0002170010872700108597001089B7001087C
:101A0000387001082DE9F04F91B08B460290924654
:101A10001C4600259AF8000008B928465EE32528F0
:101A20000AF1010707D0029B594698470028C0F2E7
:101A30005583013510E2182200210AA811F031FA6D
:101A40009AF80130252B78D0002294461646964607
:101A50001046394617F8013B2B2B00F09D8000F211
:101A60009480202B00F09B80232B00F09A8028B1DB
:101A70009DF8300040F004008DF83000BEF1000FFA
:101A800005D09DF8300040F008008DF830002EB1F0
:101A90009DF8300040F010008DF83000BCF1000FD0
:101AA00005D09DF8300040F020008DF830002AB1BC
:101AB0009DF8302042F040028DF830209DF8302013
:101AC00002F04400442803D16FF386128DF83020D1
:101AD0009DF830202A2B42F080028DF830207BD1F7
:101AE0009DF8312042F001024B1C8DF831201A780C
:101AF0002E2A9DF831200CBF0121002161F3410203
:101B00008DF8312074D15A782A2A6AD00133002105
:101B10000A26184610F8012BA2F13007092F40F2CF
:101B20008E809DF830200E91C2F3400040EAD171C2
:101B300061F341028DF830205AE00AF102078DF876
:101B400033309DF83130D90740F1498154F8049B76
:101B5000B9F1000F07DA9DF8302042F004028DF849
:101B60003020C9F100095A0740F1428154F8048B32
:101B7000B8F1000F80F241819DF831306FF34103DD
:101B80008DF831304FF0FF3837E12D2B0CD0302B52
:101B90007FF46DAF01225CE74FF0010E59E701269B
:101BA00057E74FF0010C54E7012052E70CFB02020B
:101BB000303A33461E4616F8010BA0F13007092FC4
:101BC000F4D9994293D09DF830100D92D20F62F360
:101BD00041018DF830108AE70B4600224FF00A0CC5
:101BE000E8E79DF8312042F004028DF831200233FD
:101BF0001F4617F8012B6C2A41D025D8682A2BD014
:101C00006A2A46D04C2A4CD01F4617F8012B9DF863
:101C100031308DF83320782A00F2D980572A4DD8F8
:101C2000412A03D0453A022A00F2D1809DF8323091
:101C3000042262F302038DF8323001239EE006FB9A
:101C400001213039034664E7742A26D07A2ADBD191
:101C50009DF8313006220DE05A78682A9DF831202F
:101C600006D1012161F3C6028DF831209F1CCCE71B
:101C70001346022262F3C6038DF83130C5E75A7865
:101C80006C2A9DF8312001D10421EBE71346032291
:101C9000F0E79DF831300522ECE79DF8313007225E
:101CA000E8E7BDF8303023F4F04323F0020343F4B7
:101CB000804343F00203ADF83030A6E7A2F15801AB
:101CC000202900F2848001A050F821F0911D000825
:101CD000CF1D0008CF1D0008CF1D0008CF1D000834
:101CE000CF1D0008CF1D0008CF1D0008CF1D000824
:101CF0002D1C0008CF1D0008911D0008511D000873
:101D00002D1C00082D1C00082D1C0008CF1D0008EC
:101D1000511D0008CF1D0008CF1D0008CF1D000871
:101D2000CF1D0008991D0008911D0008B51D000871
:101D3000CF1D0008CF1D0008B51D0008CF1D0008ED
:101D4000911D0008CF1D0008CF1D0008911D00083F
:101D50009DF83210012003F0780360F30201402B5C
:101D60008DF8321002BF9DF8301041F001018DF85E
:101D70003010632A31D1003B18BF01239DF8302079
:101D8000C2F340010B4363F341028DF83020D8E6E3
:101D90009DF832100220DEE79DF8322003F0780330
:101DA000A3F14000032161F3020243428DF8322087
:101DB0004341E3E79DF83220032113F0780F61F3EC
:101DC00002028DF8322014BF01230023D6E79DF8CC
:101DD000303043F001038DF830300023CEE79DF919
:101DE0003020002AB4BFDDF834904FF0FF39BAE656
:101DF0009B077FF5C7AEDDF838809DF831200023C2
:101E0000CDE90D339DF8323003F00703012BC2F307
:101E1000C30236D1D31E042B20D8DFE803F003071A
:101E2000071F1F0054F8040BC11704E0073424F007
:101E30000704F4E80201CDE90A019DF8303013F0FF
:101E4000030654D002983B465246594610F00FFA0A
:101E50000028C0F243810544BA46DBE554F8040B80
:101E6000012A4FEAE071CDE90A0105D19DF8283039
:101E70000A9300230B93E0E7022ADED1BDF9280084
:101E8000D2E7022B23D1D31E042B13D8DFE803F0B3
:101E9000030A0A12120020680A900021231D0B91E8
:101EA0001C46CAE7073424F00703F3E80201CDE932
:101EB0000A01F5E754F8043B0A93012A4FF00003A6
:101EC0000B93D3D0022AB8D1BDF82830D0E7042B29
:101ED00007D1073424F00704F4E80201CDE90A0130
:101EE000ABE7032B04BF54F8043B0A93A5E79DF826
:101EF00033007828B0D8622822D825283FF493AD43
:101F00005828A9D10DF126030093DDE90A0104AB9D
:101F10000CAA10F061F98246B8F1000F0DF126000D
:101F20000CDB9DF83020A0EB0A036FF38612984576
:101F30008DF8302002D9A8EB03030D9380463DE0D5
:101F40006338152888D801A151F820F0CD1F00086A
:101F500031200008591E0008591E0008591E0008AB
:101F6000591E000831200008591E0008591E00089B
:101F7000591E0008591E00088F2000085D20000827
:101F800061200008591E0008591E0008A51F0008FE
:101F9000591E00085D200008591E0008591E00083F
:101FA0005D200008B8F1000FDDF828A00ADB4146EB
:101FB000504610F046FF0AEB00080026BAF1000F69
:101FC0000CD149E7504610F035FFF4E70A9B8DF835
:101FD000103000260DF111080DF1100AA8EB0A03CC
:101FE00006B101339DF83220D0066BD5023352067C
:101FF0000D9948BF0E9A0B4448BF9B18B9F1000FCA
:1020000079DD9DF83020A9EB0309C2F38003039327
:10201000530770D4500664D546B1029B59463046EA
:10202000984700285ADB039B01351E46302359E0B0
:102030001E0711D413F0100618BF2026DDE90A236D
:10204000002A73F10001BFF65DAF524263EB430318
:10205000CDE90A232D2655E72B26EFE7002651E789
:102060000A9848B30DF1260300930CAA04AB002193
:1020700010F0B2F8BDF8323003F0EF0343F4F04350
:1020800043F010038246ADF83230002644E70A9B45
:10209000072A3FF6E1AEDFE802F00D04060D08085E
:1020A0000D0D1D70D8E61D80D6E62846E917C3E958
:1020B0000001D1E61D60CFE6DFF8C4800646A8F136
:1020C000050A8BE7110748BF013390E718460393D1
:1020D0005946029B98470028039B04DA11B0BDE8DB
:1020E000F08F20234D444A46002AA5EB090109F14F
:1020F000FF39EBDC0D4636B1029B59463046984716
:102100000028EBDB01359DF83230D90601D41A07DF
:1021100006D5029B5946302098470028DEDB013562
:102120009DF83230DB0607D59DF83300029B5946F7
:1021300098470028D2DB01350D9E2E44731B002BDF
:1021400016DC029843465246594610F090F8002893
:10215000C4DB0544A944A9EB0503002B7FF77CAE43
:10216000029B5946202098470028B7DB0135F2E74B
:10217000029B5946302098470028AFDB0135DDE748
:10218000CB70010838B50D4604462022002110F01E
:1021900088FEEB68E361AB686A68A3612B68236221
:1021A0000023A36262622B6922B1511E114208BF53
:1021B00043F0010323610122002104F12C0013F0FC
:1021C0000CF958B106490748074A2E2310F06CF85D
:1021D000BDE8384004482E2110F05FB838BD00BF7C
:1021E000F270010836680108CC7001082DE9F04F43
:1021F00087B0CDE90023436A013B8B4204468B46FE
:10220000C0F0BF800027DFF89881DFF89891BA46C8
:1022100004F114064FF01003EFF3118283F31288D8
:10222000BFF36F8F3046CDE902220CF061FC68B934
:1022300057498E234246484610F036F855483146F5
:1022400010F032F88E21404610F027F830460CF09E
:102250006DFC05A9204610F034F80599594505464E
:1022600034D32168236A13F8212022F0030203F8F3
:10227000212020465A4603EB810A10F048F8002539
:10228000206030460CF042FC68B94349B92342460D
:10229000484610F009F84148314610F005F8B921D8
:1022A00040460FF0FAFF029B83F31188BFF36F8F54
:1022B000002D68D0002FABD09DF81330002BA7D095
:1022C0003946A369204698470027A1E718B1204660
:1022D00010F02BF8D5E7DDE90023134343D013F0CA
:1022E00041F800283FD130460CF010FC68B92A496B
:1022F000B923424648460FF0D7FF284831460FF031
:10230000D3FFB92140460FF0C8FF039B83F3118828
:10231000BFF36F8FDDE9002304F12C000CF0DAFD30
:1023200005464FF01002EFF3118382F31288BFF3DA
:102330006F8F304602930CF0DBFB68B914498E2393
:10234000424648460FF0B0FF124831460FF0ACFF4E
:102350008E2140460FF0A1FF3046B5FA85F50CF00E
:10236000E5FB6D098DE7226905990DF11303C2F3B1
:102370004002204610F000F8051E074618BF012550
:102380007FE74FF0000A504607B0BDE8F08F00BF6E
:1023900021710108367101084E710108657101084B
:1023A000FB700108366801082DE9F041C369044655
:1023B00008460E46984704F1140507464FF01003EF
:1023C000EFF3118883F31288BFF36F8F28460CF068
:1023D0008FFB68B91A4A1B491B488E230FF064FF14
:1023E0001A4829460FF060FF15488E210FF055FF5F
:1023F00028460CF09BFB337843F00103337061688F
:102400003A4620460FF083FF606020460FF0A3FF9E
:1024100028460CF07BFB68B9094A0D490A48B923E4
:102420000FF042FF0B4829460FF03EFF0448B92148
:102430000FF033FF88F31188BFF36F8FBDE8F08191
:10244000FB70010821710108366801083671010826
:102450004E710108657101082DE9F74FDFF804811D
:10246000DFF804B1DFF80491044604F114064FF0DC
:102470001003EFF3118A83F31288BFF36F8F304696
:102480000CF036FB68B98E234246594648460FF099
:102490000BFF314831460FF007FF8E2140460FF009
:1024A000FCFE30460CF042FBD4E90131994288BF72
:1024B000636A5B1AEBB900252F4630460CF026FB09
:1024C00068B92649B923424648460FF0EDFE244834
:1024D00031460FF0E9FEB92140460FF0DEFE8AF3E7
:1024E0001188BFF36F8F002DBFD1384603B0BDE810
:1024F000F08F206A50F82150AB0700EB8107DAD04B
:1025000010F8213003F00302022A01D1AD0814D1E2
:10251000DD07E2690ED543F0020300F821303846AA
:10252000019190470199024620460FF0F0FE0025E8
:10253000A060C2E7384690470546A1682A46204673
:102540000FF0E5FEE168A0602A4620460FF0DFFEAE
:102550000125E060B1E700BF367101084E71010846
:1025600065710108FB7001082171010836680108D6
:102570002DE9F041C369044608460D46984704F129
:10258000140607464FF01003EFF3118883F3128807
:10259000BFF36F8F30460CF0ABFA68B9244A254977
:1025A00025488E230FF080FE244831460FF07CFE34
:1025B0001F488E210FF071FE30460CF0B7FA2B78D1
:1025C0006FF300032B7023699B0705D5E268236A2C
:1025D00003EB82039D4225D12B786FF341032B70CF
:1025E000E1683A4620460FF092FEE06030460CF07B
:1025F0008DFA68B90E4A12490F48B9230FF054FEFC
:10260000104831460FF050FE0948B9210FF045FE41
:1026100088F31188BFF36F8F04F12C00BDE8F041FF
:102620000CF014BC2B6867F39F032B60DEE700BF40
:10263000FB70010821710108366801083671010834
:102640004E710108657101084FF01002EFF311831C
:1026500082F31288BFF36F8F83F31188BFF36F8FFC
:10266000064B074A1A60074AD2F8803023F0070366
:1026700043F00403C2F8803000207047DC030020E0
:1026800000093D000004005830B51049104889B0D9
:10269000002212F062FF0F4D0F4900220023CDE906
:1026A000062300240E23CDE90334CDE901440B4B6E
:1026B00000944FF4407228460CF050F9084928461F
:1026C00012F056FE204609B030BD00BFE5260008D6
:1026D000780B0020B00B0020A0190020E929000889
:1026E0007E71010801480CF0B1BB00BFD805002085
:1026F000014B53F820007047E85E01081A4B1B4A53
:102700009B1A9F2B70B54FEA23160BD9184919480D
:10271000194A40F26A230FF0C7FD174840F26A21B8
:102720000FF0BBFDBFF35B8F144B53E8005F6A1CD7
:1027300043E800210029F8D1BFF35B8F15B90B4C9A
:10274000B54200DB70BD237B53B123689B690BB19D
:1027500020469847636804221968204600F0B6F9BD
:1027600001351034ECE700BFDC5B0108CC5B0108ED
:10277000CB71010836680108867101083415002004
:1027800010B5044C227812B903480CF05FFB01230A
:10279000237010BD8A180020D80500200C4BBFF311
:1027A0005B8F53E8002F013243E800210029F8D164
:1027B000BFF35B8F58B1BFF35B8F064B53E8002F1D
:1027C000013A43E800210029F8D1BFF35B8F70473D
:1027D000301500202C1500200020064BBFF35B8F26
:1027E000024653E8000F43E800210029F9D1BFF366
:1027F0005B8F704730150020F8B5FFF7EDFF0B4CED
:102800000B4D2D1B07462D110026AE4200DBF8BDF7
:1028100020460FF02AFE28B123681B6913B1394600
:102820002046984701361034EFE700BFCC5B010823
:10283000DC5B010801490248FFF7A4BCF45E010813
:1028400038150020084A08B500231370074A1360A2
:10285000074B084A1A604FF47A7000F067FBBDE836
:102860000840FFF7E7BF00BF8B180020301500209D
:102870004002002071240108014600220148002383
:10288000FFF7B4BC381500200148FFF7E5BD00BFD5
:102890003815002001460148FFF76ABE38150020B0
:1028A00001480FF0C3BD00BF381500201D4B1B7839
:1028B0002DE9F041054603B990B30FF0E6FD064659
:1028C00018B16DB13046FFF7E5FF2DB9164B1B6807
:1028D000002B01DDFFF790FFBDE8F041FFF7E0BFFF
:1028E000124BBFF35B8F53E8002F013A43E80021FE
:1028F0000029F8D1BFF35B8F0D4C0E4F3F1B3F11EA
:10290000A846B845DEDA20460FF0AFFD20B12368B7
:1029100031461B682046984708F101081034F0E75B
:10292000BDE8F0818A180020301500202C15002009
:10293000CC5B0108DC5B010813B51D4BBFF35B8F5B
:1029400053E8002F511C43E800100028F8D1BFF3D2
:102950005B8F184B1B7883B14FF01003EFF311849A
:1029600083F31288BFF36F8F0020FFF79FFF84F37C
:102970001188BFF36F8F02B010BD0F4B1B68002B87
:10298000F9D052B900220023CDE900230B4842F2CE
:10299000107200230EF09AFDEDE70A2AEBD10748EA
:1029A00012F0E7FD064802B0BDE810400CF04EBA48
:1029B0002C1500208B1800207C150020780B00209F
:1029C000D8050020064B10B51B68044698472146E1
:1029D000A0600448FFF7E8FCBDE81040FFF7ACBF7B
:1029E0004002002038150020164B174A9B1A002B76
:1029F00010B50BDC15491648164A40F236530FF055
:102A000053FC144840F236510FF047FCFFF776FEB6
:102A10000EF068F8104B186030B1104B1B68092B92
:102A200002DD0F480CF012FA0D4C0020FFF73EFFBC
:102A30000028FAD14FF0FF324FF0FF3320460CF060
:102A400049FAF2E7DC5B0108CC5B0108EF71010891
:102A500036680108867101087C1500202C150020BD
:102A6000D8050020F8B50F4F3D7875B90E4C0F4EC4
:102A7000FFF744FE361B3611B54207DB0020FFF797
:102A800015FF0028FAD101233B70F8BD20460FF056
:102A9000ECFC18B1236820465B6998470135103477
:102AA000EAE700BF8B180020CC5B0108DC5B010863
:102AB000044A054B9B1AB1EBD30F34BF52F83100D7
:102AC000002070470C5B0108CC5B010870B50368FF
:102AD0000E4C1B68041B241105460E46013463B9D5
:102AE0000B490C4A0C48BA230FF0DEFB0B480FF0E1
:102AF000DBFB0848BA210FF0D0FB6B6801221C7188
:102B00001E605A71BDE87040FFF73ABECC5B010809
:102B1000677201080F720108366801087D720108AA
:102B20000EB403B503AB014653F8042B04480193DC
:102B3000FEF768FF02B05DF804EB03B0704700BF1A
:102B4000852D00082DE9F74F1C4601F00103019285
:102B50009DF83090BDF938A000930746884601F0F3
:102B6000020B01F008060FF094FC0246002844D046
:102B700032493846FFF7D4FF0546BBF1000F08D0B5
:102B800018F0440F3BD12E4922463846FFF7C8FFC4
:102B90000544009B53B12B4B2B4953F829202B4B59
:102BA0003846002A08BF1A46FFF7BAFF3EB1284B45
:102BB000284953F829203846FFF7B2FF0646BAF1F4
:102BC000000F16DB019B002B36D0012303FA09F915
:102BD000214B224C19F0100F18BF1C4651469DF88E
:102BE0003400FFF765FF214602463846FFF798FF9D
:102BF0000644701903B0BDE8F08F0546BDE7184BD9
:102C000018680028C4D0174B4FF47A711B68B4FBC6
:102C1000F3F4B4FBF0F200FB12444C43B4FBF0F3CA
:102C200000FB13444C43B4FBF0F4384601FB034370
:102C30000D49FFF775FFABE7084CCFE7AD72010810
:102C4000B1720108085F0108287E01089F7201081F
:102C50001C5F0108C7720108A9720108A47201086B
:102C60008015002084150020BA72010838B50C4682
:102C7000E107054603D5084A0849FFF751FFE20678
:102C800008D4A30628464CBF05490649BDE838408C
:102C9000FFF746BF38BD00BF9F720108287E0108BC
:102CA00088940108CD7201082DE9F0471D46089B64
:102CB0001746DA0604460E4605D499064CBF2A4943
:102CC0002A49FFF72DFFDFF8AC904FF00008A84528
:102CD0002ADBDFF8A480DFF8A490DFF898A00025B5
:102CE000BD422FD2725D49462046FFF719FF0135DC
:102CF000102D20D11E49DFF87C80DFF8849020461B
:102D0000FFF70EFF0025AF4228D9725DA2F1200324
:102D10005F2B28BF2E2249462046FFF701FF0135D1
:102D2000102D14D1BDE8F08749462046FFF7F8FE84
:102D300008F10108CBE76A07D2D151462046FFF7D8
:102D4000EFFECDE741462046FFF7EAFECFE76B07EF
:102D5000D9D141462046FFF7E3FED4E7414620465D
:102D6000FFF7DEFEDBE700BF88940108CD720108A3
:102D7000D6720108026E0108006E0108D0720108C7
:102D8000D872010838B54B681A68CB689A42054674
:102D90000C4602D108460FF08BFB6368BFF35B8FD4
:102DA00053E8002F511C43E800100028F8D1BFF36E
:102DB0005B8FA3689D5463681A68E3689A4209D9D7
:102DC00005490648064A85230FF06EFA0448852116
:102DD0000FF063FA002038BD0A7301083668010855
:102DE000DB7201082DE9FF470B8813F4E07F0646EC
:102DF0000C469046C3F382195BD00A784B68C2F345
:102E0000C202002B52D02C495B1A43F3CF03CDE909
:102E10000123CDF80090A368002241463046FFF719
:102E200091FE8246254655F80C3BC3F34923C3B1B6
:102E3000224F23482349B9F1000F08BF38462B46DB
:102E400032460FF04BF800280BDA1F491F48204A82
:102E500040F2B7230FF028FA1D4840F2B7210FF0D7
:102E60001CFA6788C7F3CB0797B12168C1F34921E2
:102E70000D44102F3C4628BF10242946CDF8008071
:102E8000534622463046FFF70FFF3F1B2544F0D143
:102E9000B9F1000F04D04A4641463046FFF7E6FE3E
:102EA000304604B0BDE8F0470FF002BB4FF0FF33EF
:102EB000ADE7CA46B6E700BF0C5B0108CB240108AA
:102EC000852D0008051A00083A73010836680108C4
:102ED000DB72010873B542F20F738B4228BF0B46B9
:102EE00005680F4A0446052168460FF046F86368F6
:102EF0000C495B6806460B2228460FF0CCFA636843
:102F00003246694628465B680FF0C5FA6368064991
:102F10005B681B2228460FF0BEFA02B070BD00BFEE
:102F2000417F01087F73010863730108084A10B5E7
:102F30000123084C13600021A04204D801B11360A2
:102F4000054B186010BD40085B000121F4E700BF8D
:102F50008415002040420F00801500202DE9F04F1D
:102F6000C1F3492689B081460C4690469A46002E08
:102F700041D0022300934FF0040B002306AF3146EB
:102F80001A46CDF808B0019740460596FEF730FA8C
:102F9000C0F3090363F35224C4F3CB401330184445
:102FA00020F0070080081E460493FFF765FC0546E5
:102FB000B0B10223009300F10C02CDE9017B049B28
:102FC00005994046FEF714FA002809DA0F4910481F
:102FD000104A48230FF068F90E4848210FF05DF9B8
:102FE00066F3522453462246494628460FF07AFAA1
:102FF00009B0BDE8F08FC1F3CB40133020F00700DB
:103000008008FFF739FC0546EAE700BFB8730108FE
:10301000366801088B730108F8B5074F0D46044662
:103020004618B44201D12846F8BD386814F8011B8F
:1030300083685B689847F4E7A0150020014B0020E7
:103040001960704790150020024B034801221A7046
:103050000FF02EBA8C180020505F01080148FFF7CE
:1030600039BF00BF505F0108064B10B518680C4609
:10307000FFF73EFB21460346BDE8104002480F2201
:10308000184700BF90150020505F010808B5094B94
:103090000948186012F047F958B908490848094A20
:1030A00079230FF001F9BDE80840064879210FF0B7
:1030B000F4B808BDA01500207C580108F67301087B
:1030C00036680108C173010810B5084C86B0247831
:1030D0008DF81740012402940DF117040194BDF8F6
:1030E0002040009411F026FA06B010BDE70400203D
:1030F00080B50C4A0C4B00AF012918BF134688B0AD
:103100000A496A46C2E9041302231376084B42F8BF
:103110000C3F084800234FF4D651FFF71FFFBD4670
:1031200080BD00BF527401084A7401085B74010835
:10313000030000010C5B0108014B1878704700BFC9
:10314000E704002000B589B064288DF8070019D87D
:103150000E4B18221870002102A80FF0A2FE0C4B93
:1031600003930DF10703049302A901230020ADF896
:10317000143006F025FD10F1800F08BF002009B0C3
:103180005DF804FB6FF01500F9E700BFE7040020CD
:10319000D85F0108024B0360024B0361704700BF18
:1031A000493400088534000810B5054C0146204616
:1031B0000FF0E8F92046BDE8104012F099B800BFC2
:1031C00090180020034B01201870034B1B6803B1BB
:1031D000184770478E180020A415002030B5104DF8
:1031E000104B4A68E8610C4685B028461A60FFF724
:1031F000D1FF0D4B24680D481C600FF0AAF9FFF7B2
:10320000E1FF0B4B01221A702B6833B1094A01927E
:10321000094A0394029201A8984705B030BD00BF47
:10322000AC150020A4150020A8150020901800203F
:103230008F180020CB250108A93100081FB51748B9
:103240000FF08AF9B8B9164C2378A3B1134801A935
:103250000FF0AFF9134BDA690123C2B101998DF870
:103260000830039102A890479DF80830237083B17D
:10327000019800F057F909480FF06EF928B9084B8A
:103280001B7813B1054812F033F804B010BD237059
:10329000EEE7019901480FF069F9ECE7901800207A
:1032A0008F180020AC1500202DE9F8431D46174B60
:1032B0001B6807460C4616460BB100209847DFF8FE
:1032C0005880134BD8F8000022464FF00009A0F8B0
:1032D0000970C47231460C3083F800900FF0D6FDAF
:1032E0000C4B49461B694846984748F2E8000AF0EB
:1032F00051FAD8F800108A7805F1080003320FF06F
:10330000C5FDBDE8F843FFF75DBF00BFA415002071
:103310008E180020AC150020A815002037B5094CE8
:10332000094D08480FF018F908B103B030BD01A9E4
:1033300020460FF03EF92B69019918690FF022F928
:10334000EFE700BF98180020000003200F4B104A41
:1033500003F120011360516003F13001916003F12A
:103360003C01116203F14401516203F14C01D1604F
:1033700003F15401116103F17001516103F1740112
:1033800080339161D36100F015B900BF280003209C
:103390000000032038B50C4D044628460FF0D9F83C
:1033A0000A4BA2685B681A60E268DA60084AC3E9FF
:1033B000012500F01FF9074B22681A60064B62686E
:1033C0001A60002038BD00BFB400032000000320B5
:1033D00000800320D0150020CC15002008B5054B37
:1033E0005A685B6812680121117200F00BF9002025
:1033F00008BD00BF0000032037B5084C084D074842
:103400000FF0AAF808B103B030BD204601A90FF0B3
:10341000D0F82B6801989847F1E700BFB40003206B
:10342000D015002008B5044B5B68DB6802221A72D5
:1034300000F0F0F8002008BD00000320014B1B68DD
:10344000184700BFCC15002038B50A4D0446284661
:103450000FF07FF8084BA268DB68C3E9002500F095
:10346000E5F8064B22681A60054B62681A60002076
:1034700038BD00BFBC00032000000320D41500208D
:10348000D815002008B5054BDA68DB6812681021F2
:10349000117200F0D3F8002008BD00BF0000032027
:1034A000034BDA68DA68034B10681B68184700BFE3
:1034B00000000320D415002037B5084C084D0748FC
:1034C0000FF04AF808B103B030BD204601A90FF053
:1034D00070F82B6801989847F1E700BFBC00032003
:1034E000D815002038B50C4D044628460FF031F8A9
:1034F0000A480FF02EF80A4BA2681B699A60E2682E
:10350000C3E9032522681A6062685A6022695A6119
:1035100062699A6138BD00BFC4000320981800207A
:103520000000032008B5014603480FF02BF8BDE862
:103530000840024800F0C2B8981800201D33000867
:1035400013B5074C06480FF007F808B102B010BDDC
:10355000204601A90FF02DF801980FF058F8F1E777
:10356000CC0003204FF0B04382B0D3F8502142F496
:103570008012C3F85021D3F8503103F48013019323
:10358000019B0A4BD3F8D42042F40072C3F8D42034
:103590001A6A42F400721A6240BF20BF044AD3681C
:1035A00043F40043D36002B0704700BF00080058E6
:1035B000000400584FF0B04307B51A6D42F4801272
:1035C0001A651B6D03F480130193019B084B1A6865
:1035D00042F001021A601A6842F480321A602C200C
:1035E0000AF0EAFC2D2003B05DF804EB0AF0E4BC1D
:1035F000000C0058024A536823F0010353607047DF
:10360000000C0058024B4FF480329A60704700BFA4
:10361000000C0058044B4FF400129A605A6822F4D0
:1036200000125A60704700BF000C0058024A5368ED
:1036300023F0020353607047000C0058044B4FF412
:1036400000329A605A6822F400325A60704700BF14
:10365000000C0058174BDA6812F0020F10B51C4628
:1036600009D15A68920306D45A6842F400325A606B
:10367000FFF716FF10BDE3681B070DD4636818033E
:103680000AD4636843F4002363600B4B1B689847BC
:103690004FF40023A360EDE7064BDA689106E9D406
:1036A0005A689202E6D45A6842F400125A60FFF750
:1036B000C5FEDFE7000C0058DC15002010B5084CF3
:1036C000E3681B0706D5074B1860636823F40023E3
:1036D000636010BD80474FF40023A360F9E700BF8B
:1036E000000C0058DC15002038B5124CE36913F0CB
:1036F000020F254607D063689B0704D4FFF7DCFE62
:103700000223A36009E0EB69D80707D56B68D907E6
:1037100004D4FFF771FE0123AB6038BD054CE369AB
:103720001A07FAD563681B07F7D4FFF709FF0823C8
:10373000E7E700BF000C0058F0B5264E07460C46E0
:103740000FCE8DB001AD0FC50FCE0FC596E80700A7
:1037500085E807003846002F38D0002C38D0381FB5
:103760002146024610344B780D781B0443EA05636A
:10377000CD782B438D78043143EA05238C4242F8FF
:10378000043FF0D1144C04218A07036916D1C3F316
:103790000742A55C1A0EA25C42EA0562C3F3072544
:1037A000DBB2655DE35C42EA054242EA03220CAD0E
:1037B00021F003032B4453F82C3C534050F8042FC2
:1037C000013153402C290361DED101200DB0F0BD41
:1037D0002046FBE7585C0108747401082DE9F043AA
:1037E000154689B00646002858D0002959D0002A2D
:1037F00059D010230A46684619460EF009FF29469B
:1038000068462A4C0EF01CFF05F11007A146A035B2
:10381000E8466A4610231178013B615C02F8011BFF
:10382000F9D168460EF051FF694604A80EF086FFF4
:1038300001A905A80EF082FF02A906A80EF07EFFDE
:1038400003A907A80EF07AFF102319460DEB030217
:1038500068460EF0DDFE3946684610370EF0F0FE81
:10386000AF42D5D1102498F80030013C19F803304C
:1038700008F8013BF7D168460EF027FF2946684655
:103880000EF0DEFE102319466A4630460EF0C0FEEA
:103890006846102221460EF0C8FE012009B0BDE89E
:1038A000F0830846FAE71046F8E700BF7474010891
:1038B0002DE9F04F9DB00368039343680493836838
:1038C0000593C36806930369079343690893836963
:1038D0000993C3690A939846DDE908CB059B0193D8
:1038E000DDE906E2049BDFF890A1039C02910093BE
:1038F0000027029B019EDD590CAB2DBADD515AF811
:10390000043B05EB03094FEAF22585EAB21585EA87
:1039100072654D442BEA020302EA0C0983EA0903AB
:103920002B44DDE9001543444D404FEA743888EAE2
:10393000B408254001EA060985EA090588EAB45871
:103940000437A844402F03EB0E054344B646D8463F
:1039500040F0818047490B914FF0100A51460AF11F
:10396000010A1CAE0AF00F0706EB870701F00F09EA
:1039700057F8406C02964FEAB64801F10E0709313C
:1039800088EAF61801F00F011CAE06EB890906EB78
:10399000810107F00F0706EB870751F8401C59F823
:1039A000406C57F8407C3144029E4FEAF74E88EA5B
:1039B000D6088EEA774E8EEA972E414471440B9ECC
:1039C00049F8401C4FEAF52905EA020889EAB519C9
:1039D0002CEA050756F804EB0B9687EA080789EAF4
:1039E00075694F44009E77443944594404EA060EF1
:1039F00084EA060B4FEA7337019E87EAB3070BEAA6
:103A0000030B0E448BEA0E0B87EAB3575F44B046B4
:103A1000BAF1400F009E01963944E34623D1039E3C
:103A20000E44049906601944059B416023440099A3
:103A30008360069B0B44C360079B43440361089B60
:103A40002B444361099B134483610A9B6344C36114
:103A50001DB0BDE8F08F0099E346CDE900419446E2
:103A60001C462A4645E7944600942A461C4645468D
:103A70000B4673E7546001081460010810B5044652
:103A8000C8B1702200210EF0D0FD0B4B0B4A0C493F
:103A90000C48C4E900230C4BC4E902130B4BC4E9E6
:103AA00004030B4BA36103F17453A3F52303A3F6A3
:103AB0009243E361012010BD85AE67BB67E6096AEA
:103AC00072F36E3C7F520E513AF54FA58C68059B00
:103AD000ABD9831F014910220A60704710ED00E046
:103AE00072B6404080F31188BFF36F8FBFF34F8FE2
:103AF00030BF62B6BFF36F8F704700BF2DE9F0474C
:103B000086B0804600AF0C46002945D0E94688B013
:103B10006D46D1E90012A36823482E464FF0050AEE
:103B2000C5E90401C5E9062346F80CAF1F48324633
:103B300000234FF42151FFF711FAD4E9031263690E
:103B40001B48C5F80CA0CD46C5E90401C5E906230C
:103B5000AD461648324600234FF42151FFF7FEF9D7
:103B6000144AE3690325C7E90423CD46FD600F48E5
:103B700007F10C0200234FF4C251FFF7EFF90E4A90
:103B8000A369FD60C7E904230848002307F10C027C
:103B90004FF4C251FFF7E2F9214640460AF0E4FA39
:103BA0001837BD46BDE8F08774750108AC5B0108A5
:103BB000A3750108D2750108E175010843B2002B15
:103BC00008DB012200F01F0002FA00F05B09024A44
:103BD00042F82300704700BF00E100E070B54C1CC4
:103BE0000F2C05460E460FD9114A12491248572389
:103BF0000EF05AFB114831460F232A460EF054FBB3
:103C00000B4857210EF049FB6BB2002BACBF03F100
:103C100060430B4B4FEA0414B8BF05F00F05E4B244
:103C2000AABF03F561435C5583F8004370BD00BF34
:103C30000F760108457601083668010860760108AC
:103C400014ED00E030BFFFF7FDBF00BF0F4A08B51D
:103C50000F4B22F07F029A60BFF34F8FBFF36F8F3D
:103C6000D3F8882022F47002C3F88820EFF314837D
:103C700023F0040383F31488BFF36F8F0AF022FB51
:103C80000DF064F800F0E0FB0AF060FB00000008B3
:103C900000ED00E0094A0A4993680968D9670949B3
:103CA00098674B6843F080534B60002383F311887F
:103CB000BFF36F8F9368D86F704700BF181800204C
:103CC0003067010800ED00E012498A684FF03000CB
:103CD0001044EFF3098C80E8F01F102080F3128865
:103CE000BFF36F8F0C4F4FF000668A698A603E60A9
:103CF000906F0023936780F3118804B5104600F09D
:103D0000E3FBBDE8044002F1300090E8F01F8CF3C3
:103D1000098870471818002004ED00E01EF0040F19
:103D20000CBFEFF30880EFF30980816911F8021CE2
:103D30000229FFD001B50FF061F801BD42F8203C27
:103D4000009B42F81C3C0A49019B42F8183C029B2C
:103D500042F8143C21F001014FF0807342F8043C1A
:103D600042F8081C0023203A02658367704700BFB1
:103D7000951F01080B4A0346906890B113F1160F86
:103D8000806E05D0A0F120029A4206D8834204D268
:103D900081422CBF0021012100E00021002908BF41
:103DA000002070471818002008B5094B98600D4690
:103DB000144600F089FB204685F30988002163B68C
:103DC00081F31188BFF36F8F002200230EF0E2F819
:103DD0001818002001B5EFF30580A0F110004FEA9C
:103DE000C0000449014409C99847BDE8014002499F
:103DF00008470000AC580108FD3D0008044B9968D5
:103E00009869884203D003494FF080520A60704796
:103E10001818002004ED00E02DE9F04186B04E4B6B
:103E2000049380460D464D481646022403AA4FF4DB
:103E3000825103940EF0F1FF494B9B6AD80608D5D6
:103E4000484B464803AA4FF48251CDE903430EF094
:103E5000E4FF434B9B6A190709D5434B04933F4842
:103E6000022303AA4FF4825103930EF0D6FF3C4C79
:103E7000A36A9A0730D46FF01507394B9B6ADD07A8
:103E800009D53A4B04933548022303AA4FF48251D3
:103E900003930EF0C2FF324B9B6A9C0609D5344B4C
:103EA00004932E48022303AA4FF4825103930EF089
:103EB000B4FF2B4DAB6AD8062ED4AB6A99072BD42E
:103EC0000024274A936A43F0FF03936220460023AD
:103ED000337006B0BDE8F081264B04931F480223DF
:103EE00003AA4FF4825103930EF097FF676BA36A06
:103EF0001B06C0D5204B1948CDE9043703AA03237C
:103F00004FF4C25103930EF088FF002DB5D0A36A81
:103F100023F08003A362B0E76B681A05D0D5414651
:103F20003846FFF727FF044618B180F309880224BA
:103F3000C7E7AB6ADB06C3D5104A1149114840F206
:103F400049130EF0B1F910480EF0AEF90B4840F2EB
:103F500049110EF0A2F9B4E7A0760108AC5B0108A4
:103F600000ED00E0B6760108E97601082A7701083D
:103F700049770108FC760108147701087877010871
:103F8000B277010836680108FC77010810B586B0E1
:103F9000334B34480493022403AA4FF48251039410
:103FA0000EF03BFF304B9B6A9B0108D52F4B2D48F1
:103FB00003AA4FF48251CDE903430EF02EFF2A4BA2
:103FC0009B6ADC0109D52A4B04932648022303AAE5
:103FD0004FF4825103930EF020FF234B9B6A18038A
:103FE00009D5244B04931F48022303AA4FF482519E
:103FF00003930EF012FF1C4B9B6A590309D51E4B0D
:1040000004931848022303AA4FF4825103930EF03D
:1040100004FF154B9B6A9A0309D5184B049311486A
:10402000022303AA4FF4825103930EF0F6FE0E4BC7
:104030009B6ADB0309D5124B04930A48022303AAA7
:104040004FF4825103930EF0E8FE074A936A6FEA39
:1040500003436FEA13430020936206B010BD00BF14
:104060001F780108AC5B010800ED00E0377801081B
:104070004A7801086478010882780108A778010865
:10408000C178010870B586B0394B049306460D46D9
:1040900038484FF48251022403AA03940EF0BDFE67
:1040A000354B9B6AD90408D5344B324803AA4FF4E8
:1040B0008251CDE903430EF0B0FE2F4B9B6A1A05E7
:1040C00009D52F4B04932B48022303AA4FF48251A6
:1040D00003930EF0A2FE284CA36A9B051DD5294B25
:1040E0002448049303AA02234FF4825103930EF051
:1040F00094FEA36BA26A10040FD5234A1D48CDE994
:1041000004234FF4C251032303AA03930EF085FE48
:104110001EB1A36A23F40043A362174B9B6A59059F
:1041200009D51A4B04931348022303AA4FF4825172
:1041300003930EF072FE104B9A6AD20512D5144BFF
:1041400004930C48022303AA4FF4825103930EF008
:1041500064FE094A936A002043F47F439362287007
:1041600006B070BD9B6A9B04F3D50A4BE8E700BF1D
:10417000EC780108AC5B010800ED00E00279010871
:10418000E9760108137901082C79010841790108C1
:104190005C790108497701082DE9F0438B4B8BB01E
:1041A000D3F8048000AF0D46C8F30804002686F358
:1041B0001188BFF36F8F02F07F43B3F17F4F0ED1B1
:1041C00002F00C03082B1BD1814BBB6181480223F9
:1041D00007F114024FF482517B610EF01EFE7E4AFD
:1041E0007E497F484FF47C730EF05EF87D480EF0F8
:1041F0005BF879484FF47C710EF04FF8002505E02C
:1042000012075CBF05460126002DE8D00023FB7194
:10421000E31E092B00F2BA80DFE803F005ADB08D94
:10422000B8B8B8B8B8B3704B6A48BB614FF0020871
:1042300007F114024FF48251C7F814800EF0EDFD1F
:10424000624BDC6A4FF0000914EA080487F8079013
:104250000BD0664BC7E905835E4807F114024FF4A3
:1042600082510EF0DAFD00240CE0DA6A002A26DA28
:104270005F4B584807F114024FF48251C7E9058398
:104280000EF0CBFDFB79B3B92022294607F10800D7
:104290000EF0FCFD7B6A002E00F09280C3F3080252
:1042A00022B96FEA53236FEA43237B6207F10801C7
:1042B0002046FFF723FC2C37BD46BDE8F083DB6AC0
:1042C0005B004BD54B4B434807F114024FF482512E
:1042D000C7E905830EF0A1FDAB6933F8022C4DF65A
:1042E00002739A420CD003F1604303F626631B78F5
:1042F000ABB1FA1D01212846FFF78EFD0446C1E748
:104300002B683D4A3348C7E906234FF4C2510323C3
:1043100007F114027B610EF080FD2C68B2E7374B89
:104320001B7823B1F91D0120FFF7ACFEE6E7344B03
:104330001B889BB213B1FFF729FEDFE73149264AFC
:10434000274840F2C2230DF0AFFF2F480DF0ACFF1D
:1043500040F2C22120480DF0A0FF93E729491E4AF0
:104360001F4840F2C6230DF09FFF28480DF09CFF28
:1043700040F2C621EEE7FA1D0021BCE7F91D00203E
:10438000D2E7234BBB6102237B6165E7214A224BC5
:104390002249104818F4F87FE84688B018BF134641
:1043A0006A46C2E9041302231377103C1C4B946144
:1043B0004FF4095142F80C3F0EF02FFDC54652E76D
:1043C00023F4FF7323F001036FE700BF00ED00E06B
:1043D000A2790108AC5B010878770108CD79010862
:1043E00036680108E07901081E7A0108357A01086B
:1043F000567A0108647A0108837A010829ED00E001
:104400002AED00E0EB6901089F7A0108C37A0108F0
:10441000F37A01088979010874790108177B01088A
:1044200004000001024A536943F0100353617047CE
:1044300000ED00E0EFF30880EFF3098101B572466B
:10444000FFF7AAFE01BD00BF044800231021C218D7
:1044500001333F2B82F80013F9D1704700E100E0EF
:10446000102080F3118808484FF40261401880F34F
:104470000988EFF314800221084380F31488BFF306
:104480006F8FFFF7E3FB0000202B0020064B9B689B
:10449000834207D1EFF3058323B1044A536843F005
:1044A000805353600CF034BB1818002000ED00E07E
:1044B000024B034A0348012100F080B8008001202C
:1044C0000000002014610108826E054B203A1A603A
:1044D000044A2021C3E901121846012100F096B8D0
:1044E000E015002000000B15F0B5274F87B000261F
:1044F0008E4216DA4468002C42D0DBB104F1FF3C56
:1045000014EA0C0F10D0214BCDE90436032303939A
:104510001F4803AA00234FF4C251FEF71FFD6FF09E
:104520001502104607B0F0BD1F2CECD905681CEA37
:10453000050FE8D1202C0568D0F808C0D2B210D9F8
:10454000B4F1004F0FD8013CB4FA84F4C4F11F0455
:104550006400072A4CEA040407D90E4BCDE9043263
:10456000D4E70824F5E73E24F3E725F01F051543BB
:1045700045F0100544F00104BA60FD6001323C6171
:1045800001360C30B4E700BF90ED00E02E7B01084F
:104590009C5B0108517B0108034B05225A60BFF365
:1045A0004F8FBFF36F8F704790ED00E0BFF35F8FC9
:1045B000014B00225A60704790ED00E038B50E4D77
:1045C00001232A780C46FFF78FFF2870163011D18F
:1045D00040F21113094A0A490A480DF065FE2146C6
:1045E00009480DF061FEBDE83840044840F2111161
:1045F0000DF053BE38BD00BFA0180020777B010826
:10460000EB69010836680108AE7B010810B5124A53
:10461000002312780C46FFF767FF10F1160F08D041
:104620000E4B0022072800DD10BD98601A61013092
:10463000F8E70B4A0B490C484FF498730DF034FE21
:1046400021460A480DF030FEBDE8104004484FF402
:1046500098710DF022BE00BFA018002090ED00E080
:10466000777B0108EB69010836680108DA7B0108ED
:10467000254910B50C68082C13D94FF4A473234AAC
:10468000234924480DF010FE2348082221460DF04E
:104690000BFE1E484FF4A4710DF0FFFD4FF0FF30EC
:1046A00010BDFFF783FF48681C490022944200F1C7
:1046B0000C0019D11A4B1C70FFF76EFF0B68C3F387
:1046C0000723082B0ED01749104A12484FF4D47311
:1046D0000DF0EAFD14480DF0E7FD0C484FF4D471DD
:1046E0000DF0DBFD0020DBE78A6050F80C3C23F086
:1046F0001F03134343F01003CB6050F8043C43F016
:1047000001030B610132D1E720610108777B0108C9
:10471000EB69010836680108077C010890ED00E0AC
:10472000A01800203B7C01088B7C0108014B18601D
:10473000704700BF800200200E4B402970B528BF93
:1047400040210D4C46181D46B04203F1020304D12E
:10475000002305F81130074870BD02781209A25CE9
:1047600003F8022C10F8012B02F00F02A25C03F8F0
:10477000012CE9E7A1180020BB7C010830B50378C3
:104780008BB0044607AD032B21D8DFE803F0021AF3
:104790001C1E124928460EF043FB63780493A3784D
:1047A0000393E378029323790193637900930C4A8E
:1047B000A37905951E210B480DF0DFFB09480BB0CE
:1047C00030BD0949E6E70949E4E70949E2E7094A52
:1047D0000A2128460DF0D1FBDFE700BFE56A01089A
:1047E000076B010822190020EC6A0108F36A01082E
:1047F000FD6A01089E920108F0B40278012A04467D
:104800000B4616D0022A2CD08AB9194A0D4602F15D
:104810001007106851682E4603C60832BA42354662
:10482000F7D11278327062885A73120A9A73F0BC08
:1048300070470F4A0D4602F11007106851682E4666
:1048400003C60832BA423546F7D112783270626830
:104850005A73C2F30721120CDA73120A99731A748D
:10486000E5E70146F0BC112218460EF00FBB00BF71
:10487000D37C010870B51C4600F0FD03012B0546F2
:1048800016460ED005280CD00D490E4A0E4841237D
:104890000DF00AFD0D480DF007FD0A4841210DF00D
:1048A000FCFC23460A48324610F0CFFA044620B1F9
:1048B0000121083007F0D4FA2575204670BD00BFED
:1048C000137D0108E47C010836680108587D010861
:1048D000100700200B460B490246D1F8380110B5ED
:1048E00020B9BDE810400120FFF7C4BF07F05CFB12
:1048F00001210023017583810446083007F0B0FAD6
:10490000204610BD0000002070B504460F2C0D4657
:104910001046194605D80D2C12D9BDE87040FFF796
:10492000D9BF132C0CD10B4810F08FFA044628B1D4
:104930000121083007F094FA01232375204670BD49
:1049400002460B460DB10448EEE7BDE87040012079
:10495000FFF790BF440700207406002038B5836835
:104960001A7872B9B3F80140204602F043FD0546BB
:1049700040B9084B1A8822B96FEA04506FEA105008
:10498000188038BD012102F041FD2846BDE83840BD
:1049900002F0F8BC6C18002013B50C4C014605223F
:1049A00094F8670003F034F870B9094B18689A88D6
:1049B00000909B79ADF8042094F867008DF80630DC
:1049C0000422694603F024F802B010BD0000002064
:1049D000CC5C01087FB5064B04930648022303AA6A
:1049E0004FF4825103930EF037FB07B05DF804FBE0
:1049F0007F7D0108545B0108F0B58668B6F8017048
:104A0000357887B0384602F0F5FC044660B91F4B94
:104A10001F48CDE9043703AA03234FF4C25103937F
:104A20000EF01AFB07B0F0BD5DB1292D96BF194BF2
:104A300009225A5D294602F03FFF204602F0A2FCFF
:104A4000F0E78278F378C372012A08D10BB106F03F
:104A500027FF20460EF0C9FA002808BF05250D4B98
:104A600029465A5D204602F027FF002DE5D00A4B6B
:104A700004930748022303AA4FF4825103930EF0D4
:104A8000EBFA294620460EF017FED6E7997D01087D
:104A9000545B010852820108BF7D010870B583682C
:104AA000B3F801601D7886B0304602F0A3FC0446DE
:104AB00060B91E4B1E48CDE9043603AA03234FF408
:104AC000C25103930EF0C8FA06B070BD5DB1292D36
:104AD00096BF184B09225A5D294602F0EDFE20468A
:104AE00002F050FCF0E78378012B07D106F0D8FEE6
:104AF00020460EF07AFA002808BF05250D4B2946FE
:104B00005A5D204602F0D8FE002DE8D00A4B0493EF
:104B10000748022303AA4FF4825103930EF09CFA34
:104B2000294620460EF0C8FDD9E700BF997D01084F
:104B3000545B010852820108BF7D010870B5856889
:104B4000B5F8016086B0304602F054FC044660B906
:104B50001E4B1F48CDE9043603AA03234FF4C2516C
:104B600003930EF079FA06B070BD2B78BBB92A79A1
:104B7000EB7843EA0223A0F8A630AA796B7943EADE
:104B80000223A0F8AC30EB792A7A43EA0223A0F89A
:104B9000AE3002F087FD204602F0F4FBE3E71A2B6B
:104BA000F9D1C378012BF6D14FF4007104300EF027
:104BB00044FA8305EFD4D4F8A8300093D4F8B03089
:104BC00001936946204603F05DFAE4E7E57D0108BC
:104BD000545B0108B0B50B468D8900AF04462946E9
:104BE0009868FFF7A9FD8AB0094B6A46C2E9043408
:104BF000042382F82030074BC2E906504FF42A51B3
:104C000042F80C3F04480EF027FABD46B0BD00BF85
:104C1000097E010805000001545B010898B502EB0C
:104C2000C30300AF1478844205D008329A42F9D108
:104C3000FFF7D0FF13E08B8954789C4211D90B49C0
:104C40006C4688B06A46C2E90413042390614FF4AD
:104C5000015142F80C3F06480EF0FEF9A546BD464C
:104C600098BD536808469847F9E700BF2B7E0108B6
:104C7000545B01082DE9F047DFF85481DFF85491C7
:104C80004B4E86B000AF4FF0FF334FF0FF3240463F
:104C900007F0B2F8037D012B044657D0032B40F0F8
:104CA00084808389032B0CD8424943484FF4DC733A
:104CB00032460DF0F9FA404080F311884FF00300BE
:104CC00002DF042104F1080007F036FAA1894388C5
:104CD000B0F800A0FF22CAF30B008B42E08262759D
:104CE00013D06D4688B06A46344893610423C2E904
:104CF000040142F80C3F32484FF401510EF0ACF978
:104D0000AD46204607F00AF91DE002F073FB0546A8
:104D100068B9E38A2B4A2A48C7E904234FF4C251F1
:104D2000032307F10C02FB600EF096F9E9E702F0AD
:104D300063FC4FEA1A3260752146284602F0EAF910
:104D4000284602F01FFB0BF045FD9CE78389012BF1
:104D50000CD81849184840F6111332460DF0A4FA41
:104D6000404080F311884FF0030002DF022104F17C
:104D7000080007F0E1F9054600780EF024F98307F2
:104D80000CD411490C4840F6151332460DF08CFA3C
:104D9000404080F311884FF0030002DF287806239B
:104DA0004A462146FFF73AFFABE7084AB3E700BFA0
:104DB0004D7E0108817E0108366801089A7E01084F
:104DC000545B0108BE7E0108E07E01080E7F0108E9
:104DD0003C010020D061010810B5012104460830D3
:104DE00007F0AAF92146034A0078BDE810400A23DB
:104DF000FFF714BF706101087FB50121083007F08B
:104E00009BF9074A03780748CDE904234FF4C251C0
:104E1000032303AA03930EF01FF907B05DF804FB08
:104E2000227F0108545B01082DE9F047064600AFD8
:104E30009079444D8846144606F06EFE854218D09F
:104E4000A479204606F068FEE8463F4B8AB06A46E1
:104E5000C2E904360623C2E9064015623B4842F81F
:104E60000C3F4FF442510EF0F7F8C546BD46BDE881
:104E7000F087204606F058FEDFF8DC904FF00C0A71
:104E80000AFB00904D464388B34216D0204606F0F8
:104E90004BFE6C460AFB009088B06A4643882C495A
:104EA00093610423C2E90416284842F80C3F4FF4EA
:104EB00002510EF0D1F8A546D8E7264ED6F83801B3
:104EC00020B107F02BF80023C6F83831204606F051
:104ED0002BFE0C2606FB00504368ABB1B8F1000F67
:104EE00012D1204606F020FE06FB00500121426848
:104EF000D2E90003127A03F01F06B1405B09DAB170
:104F000000EB83000EF099F8204606F00DFE0C260B
:104F100006FB00508368002BA8D0204606F004FE54
:104F2000704305F80080204606F0FEFD06FB0055A4
:104F3000A86809F08BFF99E7C94300EB83000EF0E6
:104F40006DF8E1E7DC060020447F0108545B0108AE
:104F5000797F010800000020F015002010B583685B
:104F60001C8886B0204602F045FA60B9074B084815
:104F7000CDE9043403AA03234FF4C25103930EF086
:104F80006BF806B010BD02F0FDF9FAE7E57D010807
:104F9000545B010810B58368B3F8014086B0204621
:104FA00002F028FA60B9084B0848CDE9043403AA96
:104FB00003234FF4C25103930EF04EF806B010BD18
:104FC00002F0E0F9FAE700BFE57D0108545B010853
:104FD000F0B585682E7887B08EB9B5F8017038467F
:104FE00002F008FA044660B90A4B0B48CDE90437D1
:104FF00003AA03234FF4C25103930EF02DF807B018
:10500000F0BDEB780373314602F000FA204602F05F
:10501000B9F9F4E7997D0108545B01087FB583680D
:10502000074A1B780748CDE904234FF4C4510323F2
:1050300003AA03930EF010F807B05DF804FB00BF5D
:10504000AC7F0108545B010870B58568B5F8016054
:1050500086B0304602F0CEF9044660B90E4B0F48D8
:10506000CDE9043603AA03234FF4C25103930DF094
:10507000F3FF06B070BD2B7823B90822E91CB430C9
:105080000DF004FF4FF40061201D0DF0D6FF204607
:1050900002F078F9EDE700BFE57D0108545B0108F7
:1050A0002DE9F04700258768DFF8F09086B0A84624
:1050B0003B789D4202DB06B0BDE8F08707EB850335
:1050C000B3F801A0B3F80360504602F093F9044628
:1050D000D8B100F1280A002E3BD04FF01003EFF3B7
:1050E000118283F31288BFF36F8FE369D3B1013B61
:1050F000E36182F31188BFF36F8F204601F08AFFCE
:10510000013E09F0A3FEB6B2E5E7224B2248CDE905
:10511000043A03AA03234FF4C25103930DF09CFFFA
:105120000135C5E763692BB1A169186860618B42DD
:1051300008BFA06182F31188BFF36F8F6BB90223A0
:105140001548CDF8109003AA4FF4825103930DF047
:1051500083FF204602F016F9E2E74FF01002EFF36A
:10516000118182F31288BFF36F8FDA68E261C3F8AE
:105170000080626AC3F80C804AB9C4E9083381F33D
:105180001188BFF36F8F50460AF0C0F9B5E713607E
:105190006362F4E7D47F0108545B0108F07F0108E3
:1051A00038B504210446083006F0C6FF457801787A
:1051B00040882246FFF738FE25B10348BDE8384055
:1051C00009F044BE38BD00BF2001002038B50321DE
:1051D0000446083006F0B0FFA36805781978B0F8E7
:1051E00001002246FFF720FE25B10348BDE8384004
:1051F00009F02CBE38BD00BF2001002010B5C1E968
:1052000000239DF808300B720C4606F08DFC034B12
:105210000C2202FB0030446010BD00BFF0150020DE
:105220002DE9F84F4FF0FF3205464FF0FF331B4892
:105230000E460FF00AFE044648B9194919481A4AA1
:10524000EC230DF031F81848EC210DF026F804F1AC
:10525000080B01210027584606F002FE277520465C
:1052600006F062FCDFF844804FF00C0A0AFB008075
:105270004580204606F058FC0AFB008087602046E7
:1052800006F052FC0AFB008003214760584606F0F6
:1052900075FF867005802046BDE8F88FDC0600208B
:1052A0007B7D0108366801084D7E0108F01500205D
:1052B0002DE9F04387B0814600AF15460C4621B971
:1052C000FFF7AEFF0446002858D0012200213846DF
:1052D00010F083F8204606F027FC2A4E0C2303FB2F
:1052E00000608760204606F05FFE0146264806F013
:1052F000E1FD264A0023384609F0ECFD804680B1E6
:10530000234A244924484FF49A730CF0CDFF2348D4
:1053100041460CF0C9FF404080F311884FF0030074
:1053200002DF204606F000FC0C234343F65CE6B1A6
:105330001B4B1C486D4688B06A46C2E904390423F9
:1053400096614FF4025142F80C3F0DF085FE204665
:10535000AD4606F0E3FD092E0CBF6FF06E006FF056
:1053600004001C37BD46BDE8F08315B12C60304603
:10537000F7E7204606F0D2FD2846F2E76FF0680016
:10538000EFE700BFF015002058010020A0860100C3
:105390004D7E0108F2700108366801080780010897
:1053A00027800108545B010870B588B006460D4699
:1053B00001AA002142F22F00FFF77AFF044660B1F4
:1053C0000B4B06930B48022305AA4FF48251059319
:1053D0000DF042FE204608B070BD01988368B3F816
:1053E00001203280B3F803302B8006F097FDF1E7FF
:1053F00043800108545B01082DE9F04F8FB0B0F8ED
:105400000190AE4A6FEA095311886FEA13530546BB
:105410009BB299424FF0000602AF04BF16800126EE
:1054200000F00CFE2C781FFA89F874B33C2C22D1C2
:1054300001F0B8F86FF0400110300DF0EFFD0020E2
:10544000FFF7AAFA054670B99D4BBB6202237B6247
:1054500007F124024FF482519A480DF0FDFD3437D4
:10546000BD46BDE8F08F0473002101F0CFFF284650
:1054700001F088FFF3E7944BC7E90A3403237B620A
:1054800007F124024FF4C451E6E72B79023B012BCC
:1054900005F1040A41D80722514607F110000DF02A
:1054A000F5FC3B7C0622023B05F1110107F10900E6
:1054B0003B740DF0EBFC01233B72EB78012B13D115
:1054C00007F11000FFF768FAEB78012B04460AD1C8
:1054D00001F068F86FF04001834610300DF09EFD3A
:1054E00058460EF045F87CBB5046FFF747F96C462E
:1054F000764B88B002AAC2E9043002231376744BBB
:1055000042F80C3F6F484FF4D2510DF0A5FD1F211A
:10551000A54640460DF0B3FDA1E7EB78012B04BF93
:105520006C4B93F86740514620460DF008FF072268
:10553000014607F110000DF0A9FC0722514607F1C2
:1055400008000DF0A3FCB8E72046072220F8909B46
:1055500007F110010DF09AFC2A7EEB7D43EA02234D
:10556000A4F8A630AA7E6B7E43EA0223A4F8AC30EE
:10557000EB7E2A7F43EA0223A4F8AE30EB78E37097
:105580000025012B25731CD1072207F1080104F126
:1055900097000DF07BFC01F005F8217ADFF83481EB
:1055A000C1EBC1010722414404F19E000DF06EFCE5
:1055B000D8F8DC102A4601F04003134301D001F073
:1055C000C9F90721204601F021FF1EB10121204623
:1055D00001F01CFF20460EF066F8637B072B67D1B5
:1055E000BFF35B8F63683B4EBFF35B8F13F4006FB9
:1055F00026D1E3781BB196F8D030180720D50221C8
:1056000042F21600FFF70CFE0546002852D0022198
:10561000083006F0B3FD238803800022294642F2B9
:105620001600FFF745FE58B12B4B07F12402C7E9DE
:105630000A304FF4C251032322487B620DF00CFD67
:1056400096F8D130D90713D50021022300911A46CC
:1056500020460DF04DFD58B1204B07F12402C7E95B
:105660000A304FF4C251032316487B620DF0F4FC5C
:1056700096F8D0309A061BD5D6F874319B689B07F4
:1056800016D5B91D381DFFF78FFE88B9FA88B9887D
:1056900020460DF00FFD58B1114B07F12402C7E968
:1056A0000A304FF4C251032306487B620DF0D4FC4C
:1056B0002046DDE66FF06800B6E700BF6C180020FA
:1056C000AA800108545B0108CB800108E48001082E
:1056D0000300000100000020008101082181010871
:1056E0003881010829289ABF014B185C09207047AE
:1056F00052820108024BD3F874315B69184700BF2E
:105700000000002030B5054687B00C4619B9FFF7F8
:1057100087FD0446F8B140F635439D4215D1204639
:10572000FFF7E8FF054668B10C4B03AACDE904304A
:105730004FF4C2510A48032303930DF08DFC204619
:1057400006F0ECFB284607B030BD0648214606F0BF
:10575000B1FB0025F6E76FF06805F3E75481010817
:10576000545B010858010020F0B584682688B7B260
:105770008DB0384601F03EFE054660B9264B2748FD
:10578000CDE90A3709AA03234FF4C25109930DF05A
:1057900063FC0DB0F0BD02AFD4F80220D4F806309F
:1057A0000197618900910FF0E0F920B3122142F2D4
:1057B0001A00FFF735FD044668B9194B0A931748DC
:1057C000022309AA4FF4825109930DF045FC2846A3
:1057D00001F0D8FDDDE71221083006F0CFFC394694
:1057E00020F8026B10220DF051FB214642F21A0004
:1057F000FFF788FFEBE7022142F21B00FFF710FDE5
:1058000004460028D9D00221083006F0B7FC214612
:10581000068042F21B00EBE7E57D0108545B0108BE
:1058200076810108F0B58368D9789A781F8889B0A5
:1058300042EA0122ADF8002059791A7942EA0122A0
:10584000ADF802209A79D97942EA0122ADF8042014
:105850001A7A5B7ABCB242EA03232046ADF80630DE
:1058600001F0C8FD064680B9204B2148CDE9063439
:105870004FF4C251032305AA05930DF0EDFB02215D
:1058800020460DF0B8FC09B0F0BD694601F076FF86
:1058900038B91E2120460DF0AEFC304601F072FDF5
:1058A000F1E70E2142F22000FFF7BAFC054600287E
:1058B000F3D00E21083006F061FC0E2204460021D0
:1058C0000DF0EFFABDF800306380BDF80230A38020
:1058D000BDF80430E380BDF80630278023812946D7
:1058E00042F22000FFF70EFFD7E700BFE57D010879
:1058F000545B01082DE9F04FDFF85481DFF8809107
:1059000087B008F1140AD8F80C3050466FF35233C0
:10591000C8F80C3001F0F8FC461C4D484FF0FF323F
:105920004FF0FF3331460CF075F860B149494A48F1
:1059300040F68D134A460CF0B7FC404080F31188C6
:105940004FF0030002DF454D414F05F5907B16B93E
:105950000AF040FFD7E7FB68C3F34533012B60D95A
:10596000042B68D13B7B002B5ED13D4800220023F5
:1059700006F042FA044660B93A49374840F6241323
:105980004A460CF091FC404080F311884FF0030030
:1059900002DF4FF0FF334FF0FF32584609F09AFA1A
:1059A000D5F8383183B1304B3048049303AA022331
:1059B0004FF4825103930DF04FFBD5F8380106F0F8
:1059C000ADFA0023C5F83831204606F0EDFAC5F8E7
:1059D00038012046FFF78EFE18B3254B03AACDE908
:1059E00004304FF4C2510323204803930DF034FBDD
:1059F000204809F02BFA204606F096F81E4B0C22A0
:105A000002FB00301F2140882246FFF70DFAD5F82F
:105A1000380106F083FA00232046C5F8383106F035
:105A20007DFA1437013E92E7012BFAD138693838F4
:105A300002F0FEF8F5E7114A0C48CDE904234FF4D3
:105A4000C451032303AA03930DF006FBE9E700BF4B
:105A500084020020F270010836680108000000206E
:105A6000580100207B7D01088D810108545B0108ED
:105A70005481010820010020F0150020A8810108B0
:105A80004D7E01082DE9F041044600F1080630463C
:105A90000FF0EFF9B4F80C80B8F1010F05460CD8FF
:105AA0001C4A1D491D4840F629530CF0FDFB40409F
:105AB00080F311884FF0030002DF0221304606F028
:105AC0003BFB074600780DF07EFAC20706460CD471
